01#BPA#2026030009720000291608FUNDO MUNICIPAL DE SAUDE      FMSRB 10896489000185SECRETARIA DA SAUDE DO ESTADO DA BAHIA  MD04.11
025847516202602223208001010301010048000000006BPA
025847516202602223208001020301010153000000051BPA
025847516202602223208001030414020073000000037BPA
025847516202602223208001040414020219000000012BPA
025847516202602223208001050414020278000000008BPA
025847516202602223208001060414020120000000001BPA
025847516202602223208001070414020138000000037BPA
025847516202602223248001080301010048000000060BPA
025847516202602223248001090301010153000000006BPA
025847516202602223248001100414020057000000001BPA
025847516202602223248001110414020073000000053BPA
025847516202602223248001120414020219000000051BPA
025847516202602223248001130414020138000000054BPA
025847516202602223248001140414020278000000013BPA
025847516202602223212001150307020010000000013BPA
025847516202602223212001160307020029000000014BPA
025847516202602223212001170307020070000000037BPA
025847516202602223212001180101020090000000039BPA
025847516202602223212001190301010048000000012BPA
025847516202602223212001200301010153000000033BPA
025847516202602223212002010301100039000000001BPA
025847516202602223212002020307020045000000019BPA
025847516202602223212002030307020053000000007BPA
025847516202602223212002040307020061000000008BPA
025847516202603223208001010301010048000000008BPA
025847516202603223208001020301010153000000066BPA
025847516202603223208001030414020057000000002BPA
025847516202603223208001040414020073000000063BPA
025847516202603223208001050414020219000000012BPA
025847516202603223208001060414020278000000015BPA
025847516202603223208001070414020120000000001BPA
025847516202603223208001080414020138000000063BPA
025847516202603223248001090301010048000000045BPA
025847516202603223248001100301010153000000009BPA
025847516202603223248001110414020073000000042BPA
025847516202603223248001120414020219000000039BPA
025847516202603223248001130414020278000000006BPA
025847516202603223248001140414020138000000042BPA
025847516202603223248001150414020383000000001BPA
025847516202603223212001160307020010000000014BPA
025847516202603223212001170101020066000000001BPA
025847516202603223212001180307020029000000014BPA
025847516202603223212001190307010015000000001BPA
025847516202603223212001200307020070000000030BPA
025847516202603223212002010101020090000000034BPA
025847516202603223212002020301010048000000012BPA
025847516202603223212002030301010153000000041BPA
025847516202603223212002040301100039000000001BPA
025847516202603223212002050307020045000000012BPA
025847516202603223212002060307020053000000011BPA
025847516202603223212002070307020061000000007BPA
025847516202603223212002080307040151000000001BPA
027782926202512223505001010301010048001000003BPA
027782926202512223505001020301010048010000002BPA
027782926202512223505001030301010048011000001BPA
027782926202512223505001040301010048021000001BPA
027782926202512223505001050301010048024000001BPA
027782926202512223505001060301010048025000001BPA
027782926202512223505001070301010048031000001BPA
027782926202512223505001080301010048035000001BPA
027782926202512223505001090301010048036000001BPA
027782926202512223505001100301010048030000001BPA
027782926202512223505001110301010048037000002BPA
027782926202512223505001120301010048038000003BPA
027782926202512223505001130301010048041000002BPA
027782926202512223505001140301010048043000002BPA
027782926202512223505001150301010048044000001BPA
027782926202512223505001160301010048047000001BPA
027782926202512223505001170301010048056000001BPA
027782926202512223505001180301010048057000001BPA
027782926202512223505001190301010048059000001BPA
027782926202512223505001200301010048023000001BPA
027782926202512225103002010301010072063000001BPA
027782926202512225103002020301010072066000001BPA
027782926202512225103002030301010072069000003BPA
027782926202512225103002040301010072070000001BPA
027782926202512225103002050301010072073000001BPA
027782926202512225103002060301010072079000001BPA
027782926202512225103002070301010072085000001BPA
027782926202512223505002080301010048001000002BPA
027782926202512223505002090301010048002000001BPA
027782926202512223505002100301010048021000001BPA
027782926202512223505002110301010048023000002BPA
027782926202512223505002120301010048024000001BPA
027782926202512223505002130301010048025000001BPA
027782926202512223505002140301010048026000002BPA
027782926202512223505002150301010048027000001BPA
027782926202512223505002160301010048031000001BPA
027782926202512223505002170301010048036000002BPA
027782926202512223505002180301010048038000001BPA
027782926202512223505002190301010048041000001BPA
027782926202512223505002200301010048047000001BPA
027782926202512223505003010301010048051000001BPA
027782926202512223505003020301010048054000002BPA
027782926202512223505003030301010048055000001BPA
027782926202512223505003040301010048057000003BPA
027782926202512223505003050301010048059000001BPA
027782926202512223505003060301010048060000001BPA
027782926202512223505003070301010048061000002BPA
027782926202512223505003080301010048062000001BPA
027782926202512223505003090301010048066000001BPA
027782926202512223505003100301010048069000002BPA
027782926202512223505003110301010048070000001BPA
027782926202512223505003120301010048075000001BPA
027782926202512223505003130301010048076000001BPA
027782926202512223505003140301010048085000002BPA
027782926202512223505003150301010048004000001BPA
027782926202512223505003160301010048006000001BPA
027782926202512223505003170301010048011000001BPA
027782926202512223505003180301010048012000001BPA
027782926202512223505003190301010048027000001BPA
027782926202512223505003200301010048030000001BPA
027782926202512223505004010301010048031000001BPA
027782926202512223505004020301010048035000001BPA
027782926202512223505004030301010048036000001BPA
027782926202512223505004040301010048037000001BPA
027782926202512223505004050301010048041000001BPA
027782926202512223505004060301010048043000001BPA
027782926202512223505004070301010048046000001BPA
027782926202512223505004080301010048048000001BPA
027782926202512223505004090301010048051000001BPA
027782926202512223505004100301010048052000001BPA
027782926202512223505004110301010048054000001BPA
027782926202512223505004120301010048056000001BPA
027782926202512223505004130301010048057000005BPA
027782926202512223505004140301010048058000001BPA
027782926202512223505004150301010048060000003BPA
027782926202512223505004160301010048061000003BPA
027782926202512223505004170301010048062000001BPA
027782926202512223505004180301010048066000001BPA
027782926202512223505004190301010048068000001BPA
027782926202512223505004200301010048069000002BPA
027782926202512223505005010301010048070000001BPA
027782926202512223505005020301010048075000001BPA
027782926202512223505005030301010048082000001BPA
027782926202512223505005040301010048085000001BPA
027782926202512225103005050301010072001000003BPA
027782926202512225103005060301010072010000002BPA
027782926202512225103005070301010072011000001BPA
027782926202512225103005080301010072021000001BPA
027782926202512225103005090301010072023000001BPA
027782926202512225103005100301010072024000001BPA
027782926202512225103005110301010072025000001BPA
027782926202512225103005120301010072031000001BPA
027782926202512225103005130301010072035000001BPA
027782926202512225103005140301010072036000001BPA
027782926202512225103005150301010072030000001BPA
027782926202512225103005160301010072037000002BPA
027782926202512225103005170301010072038000003BPA
027782926202512225103005180301010072041000002BPA
027782926202512225103005190301010072043000002BPA
027782926202512225103005200301010072044000001BPA
027782926202512225103006010301010072047000001BPA
027782926202512225103006020301010072056000001BPA
027782926202512225103006030301010072057000001BPA
027782926202512225103006040301010072059000001BPA
027782926202512225103006050301010072063000001BPA
027782926202512225103006060301010072066000001BPA
027782926202512225103006070301010072069000003BPA
027782926202512225103006080301010072070000001BPA
027782926202512225103006090301010072073000001BPA
027782926202512225103006100301010072079000001BPA
027782926202512225103006110301010072085000001BPA
027782926202512225103006120301010072001000002BPA
027782926202512225103006130301010072002000001BPA
027782926202512225103006140301010072021000001BPA
027782926202512225103006150301010072023000002BPA
027782926202512225103006160301010072024000001BPA
027782926202512225103006170301010072025000001BPA
027782926202512225103006180301010072026000001BPA
027782926202512225103006190301010072027000001BPA
027782926202512225103006200301010072031000001BPA
027782926202512225103007010301010072036000002BPA
027782926202512225103007020301010072038000001BPA
027782926202512225103007030301010072041000001BPA
027782926202512225103007040301010072047000001BPA
027782926202512225103007050301010072051000001BPA
027782926202512225103007060301010072054000002BPA
027782926202512225103007070301010072055000001BPA
027782926202512225103007080301010072057000003BPA
027782926202512225103007090301010072059000001BPA
027782926202512225103007100301010072060000001BPA
027782926202512225103007110301010072061000002BPA
027782926202512225103007120301010072062000001BPA
027782926202512225103007130301010072066000001BPA
027782926202512225103007140301010072069000002BPA
027782926202512225103007150301010072070000001BPA
027782926202512225103007160301010072075000001BPA
027782926202512225103007170301010072076000001BPA
027782926202512225103007180301010072085000002BPA
027782926202512225103007190301010072004000001BPA
027782926202512225103007200301010072006000001BPA
027782926202512225103008010301010072011000001BPA
027782926202512225103008020301010072012000001BPA
027782926202512225103008030301010072027000001BPA
027782926202512225103008040301010072030000001BPA
027782926202512225103008050301010072031000001BPA
027782926202512225103008060301010072035000001BPA
027782926202512225103008070301010072036000001BPA
027782926202512225103008080301010072037000001BPA
027782926202512225103008090301010072041000002BPA
027782926202512225103008100301010072043000001BPA
027782926202512225103008110301010072046000001BPA
027782926202512225103008120301010072048000001BPA
027782926202512225103008130301010072051000001BPA
027782926202512225103008140301010072052000001BPA
027782926202512225103008150301010072054000001BPA
027782926202512225103008160301010072056000001BPA
027782926202512225103008170301010072057000001BPA
027782926202512225103008180301010072058000001BPA
027782926202512225103008190301010072060000003BPA
027782926202512225103008200301010072061000003BPA
027782926202512225103009010301010072062000001BPA
027782926202512225103009020301010072066000001BPA
027782926202512225103009030301010072068000001BPA
027782926202512225103009040301010072069000002BPA
027782926202512225103009050301010072070000001BPA
027782926202512225103009060301010072075000001BPA
027782926202512225103009070301010072082000001BPA
027782926202512225103009080301010072085000001BPA
027782926202512223505009090301010048023000001BPA
027782926202512223505009100301010048025000001BPA
027782926202512223505009110301010048026000001BPA
027782926202512223505009120301010048028000001BPA
027782926202512223505009130301010048035000001BPA
027782926202512223505009140301010048036000002BPA
027782926202512223505009150301010048037000001BPA
027782926202512223505009160301010048038000001BPA
027782926202512223505009170301010048039000001BPA
027782926202512223505009180301010048044000002BPA
027782926202512223505009190301010048045000002BPA
027782926202512223505009200301010048046000002BPA
027782926202512223505010010301010048041000001BPA
027782926202512223505010020301010048047000002BPA
027782926202512223505010030301010048048000001BPA
027782926202512223505010040301010048051000002BPA
027782926202512223505010050301010048054000001BPA
027782926202512223505010060301010048057000004BPA
027782926202512223505010070301010048060000002BPA
027782926202512223505010080301010048065000001BPA
027782926202512223505010090301010048070000001BPA
027782926202512223505010100301010048075000001BPA
027782926202512223405010110301010048023000001BPA
027782926202512223405010120301010048025000001BPA
027782926202512223405010130301010048026000001BPA
027782926202512223405010140301010048033000001BPA
027782926202512223405010150301010048035000002BPA
027782926202512223405010160301010048036000002BPA
027782926202512223405010170301010048037000001BPA
027782926202512223405010180301010048038000001BPA
027782926202512223405010190301010048039000001BPA
027782926202512223405010200301010048040000002BPA
027782926202512223405011010301010048041000002BPA
027782926202512223405011020301010048043000003BPA
027782926202512223405011030301010048044000001BPA
027782926202512223405011040301010048045000001BPA
027782926202512223405011050301010048046000003BPA
027782926202512223405011060301010048047000001BPA
027782926202512223405011070301010048048000001BPA
027782926202512223405011080301010048049000001BPA
027782926202512223405011090301010048051000001BPA
027782926202512223405011100301010048052000001BPA
027782926202512223405011110301010048054000001BPA
027782926202512223405011120301010048057000002BPA
027782926202512223405011130301010048060000002BPA
027782926202512223405011140301010048061000001BPA
027782926202512223405011150301010048065000001BPA
027782926202512223405011160301010048067000001BPA
027782926202512223405011170301010048070000002BPA
027782926202512223405011180301010048025000001BPA
027782926202512223405011190301010048026000001BPA
027782926202512223405011200301010048035000001BPA
027782926202512223405012010301010048036000002BPA
027782926202512223405012020301010048037000003BPA
027782926202512223405012030301010048038000001BPA
027782926202512223405012040301010048040000001BPA
027782926202512223405012050301010048041000003BPA
027782926202512223405012060301010048043000003BPA
027782926202512223405012070301010048044000003BPA
027782926202512223405012080301010048045000003BPA
027782926202512223405012090301010048046000001BPA
027782926202512223405012100301010048047000001BPA
027782926202512223405012110301010048050000002BPA
027782926202512223405012120301010048051000002BPA
027782926202512223405012130301010048056000005BPA
027782926202512223405012140301010048059000002BPA
027782926202512223405012150301010048060000001BPA
027782926202512223405012160301010048065000001BPA
027782926202512223405012170301010048069000001BPA
027782926202512223405012180301010048075000001BPA
027782926202601223405001010301010048020000001BPA
027782926202601223405001020301010048022000001BPA
027782926202601223405001030301010048023000001BPA
027782926202601223405001040301010048025000001BPA
027782926202601223405001050301010048026000001BPA
027782926202601223405001060301010048030000001BPA
027782926202601223405001070301010048035000002BPA
027782926202601223405001080301010048037000001BPA
027782926202601223405001090301010048038000001BPA
027782926202601223405001100301010048039000001BPA
027782926202601223405001110301010048040000001BPA
027782926202601223405001120301010048041000001BPA
027782926202601223405001130301010048042000001BPA
027782926202601223405001140301010048043000001BPA
027782926202601223405001150301010048044000001BPA
027782926202601223405001160301010048045000003BPA
027782926202601223405001170301010048046000002BPA
027782926202601223405001180301010048080000001BPA
027782926202601223405001190301010048056000002BPA
027782926202601223405001200301010048057000001BPA
027782926202601223405002010301010048059000001BPA
027782926202601223405002020301010048061000001BPA
027782926202601223405002030301010048065000001BPA
027782926202601223405002040301010048069000001BPA
027782926202601223405002050301010048075000001BPA
027782926202602223405001010301010048022000001BPA
027782926202602223405001020301010048025000001BPA
027782926202602223405001030301010048035000003BPA
027782926202602223405001040301010048037000002BPA
027782926202602223405001050301010048038000001BPA
027782926202602223405001060301010048039000001BPA
027782926202602223405001070301010048040000001BPA
027782926202602223405001080301010048041000001BPA
027782926202602223405001090301010048042000003BPA
027782926202602223405001100301010048043000002BPA
027782926202602223405001110301010048044000001BPA
027782926202602223405001120301010048045000003BPA
027782926202602223405001130301010048047000001BPA
027782926202602223405001140301010048050000002BPA
027782926202602223405001150301010048051000001BPA
027782926202602223405001160301010048054000001BPA
027782926202602223405001170301010048056000003BPA
027782926202602223405001180301010048059000001BPA
027782926202602223405001190301010048061000001BPA
027782926202602223405001200301010048065000002BPA
027782926202602223405002010301010048069000001BPA
027782926202602223405002020301010048075000001BPA
027782926202602223405002030301010048023000001BPA
027782926202602223505002040301010048001000001BPA
027782926202602223505002050301010048020000001BPA
027782926202602223505002060301010048021000001BPA
027782926202602223505002070301010048023000001BPA
027782926202602223505002080301010048024000001BPA
027782926202602223505002090301010048025000001BPA
027782926202602223505002100301010048026000001BPA
027782926202602223505002110301010048027000002BPA
027782926202602223505002120301010048030000002BPA
027782926202602223505002130301010048031000001BPA
027782926202602223505002140301010048033000001BPA
027782926202602223505002150301010048034000001BPA
027782926202602223505002160301010048035000001BPA
027782926202602223505002170301010048037000002BPA
027782926202602223505002180301010048038000002BPA
027782926202602223505002190301010048039000001BPA
027782926202602223505002200301010048040000001BPA
027782926202602223505003010301010048043000001BPA
027782926202602223505003020301010048044000001BPA
027782926202602223505003030301010048045000001BPA
027782926202602223505003040301010048048000001BPA
027782926202602223505003050301010048049000001BPA
027782926202602223505003060301010048051000001BPA
027782926202602223505003070301010048054000001BPA
027782926202602223505003080301010048055000001BPA
027782926202602223505003090301010048056000002BPA
027782926202602223505003100301010048057000001BPA
027782926202602223505003110301010048058000001BPA
027782926202602223505003120301010048060000002BPA
027782926202602223505003130301010048061000002BPA
027782926202602223505003140301010048062000001BPA
027782926202602223505003150301010048063000001BPA
027782926202602223505003160301010048007000001BPA
027782926202602223505003170301010048073000001BPA
027782926202602223505003180301010048074000001BPA
027782926202602223505003190301010048075000001BPA
027782926202602223505003200301010048076000001BPA
027782926202602223505004010301010048078000001BPA
027782926202602223505004020301010048079000001BPA
027782926202602225103004030301010072001000001BPA
027782926202602225103004040301010072020000001BPA
027782926202602225103004050301010072021000001BPA
027782926202602225103004060301010072023000001BPA
027782926202602225103004070301010072024000001BPA
027782926202602225103004080301010072025000001BPA
027782926202602225103004090301010072026000001BPA
027782926202602225103004100301010072027000002BPA
027782926202602225103004110301010072030000002BPA
027782926202602225103004120301010072031000001BPA
027782926202602225103004130301010072033000001BPA
027782926202602225103004140301010072034000001BPA
027782926202602225103004150301010072035000001BPA
027782926202602225103004160301010072037000002BPA
027782926202602225103004170301010072038000001BPA
027782926202602225103004180301010072039000001BPA
027782926202602225103004190301010072040000001BPA
027782926202602225103004200301010072043000001BPA
027782926202602225103005010301010072044000001BPA
027782926202602225103005020301010072048000001BPA
027782926202602225103005030301010072049000001BPA
027782926202602225103005040301010072051000001BPA
027782926202602225103005050301010072054000001BPA
027782926202602225103005060301010072055000001BPA
027782926202602225103005070301010072056000001BPA
027782926202602225103005080301010072057000001BPA
027782926202602225103005090301010072058000001BPA
027782926202602225103005100301010072060000002BPA
027782926202602225103005110301010072061000002BPA
027782926202602225103005120301010072062000001BPA
027782926202602225103005130301010072063000001BPA
027782926202602225103005140301010072070000001BPA
027782926202602225103005150301010072073000001BPA
027782926202602225103005160301010072074000001BPA
027782926202602225103005170301010072075000001BPA
027782926202602225103005180301010072076000001BPA
027782926202602225103005190301010072078000001BPA
027782926202602225103005200301010072079000001BPA
03251033220260276148110096830422360520260105001010302050027075661517812735F292720M23307600000401             BPAMARIA OLIVEIRA ALVES          1949080903    010126005                          19700204081TRAVESSA CENTRAL              CASA      598  BOA VISTA                                                                                              
03251033220260274658951063856122360520251107001010302050027636071378249327F292720M54605600001001             BPAPEDRO SANTOS SANTOS           1969041203    010126005                          02696214081AV BRASIL                     CASA      565  PLANALTO                                                                                               
03251033220260269652071973209422360520251017001020302050027586667573632451M292720M23306000001001             BPAPEDRO GOMES MELO              1964112303    010126005                          48243062081RUA SAO JOSE                  CASA      316  BOA VISTA                                                                                              
03251033220260245706412591184122360520260219001020302040021122199464686336F292720J96004400000301             BPAHELENA LIMA DIAS              1981100503    010135003                          10011035028RUA DO COMERCIO               CASA      197  JARDIM                                                                                                 
03251033220260293118519954166022360520251107001030302050027725837766824858F292720M23306600001001             BPALUCAS ROCHA DIAS              1959070103    010126005                          41494144017RUA DO COMERCIO               CASA      924  PLANALTO                                                                                               
03251033220260262277584911334122360520251107001030302040021141063187717533F292720J80 04600000601             BPAHELENA COSTA LIMA             1979062503    010126004                          84159367081AV BRASIL                     CASA      454  NOVO HORIZONTE                                                                                         
03251033220260290202659768729922360520250617001040302060022964622704534789M292720I62900000001001             BPALUCAS MELO COSTA              2025041503    010126007                          70984155081RUA DO COMERCIO               CASA      945  PLANALTO                                                                                               
03251033220260220507284129932022360520251208001040302050027097008445512512F292720M54504300001001             BPABEATRIZ OLIVEIRA DIAS         1982011603    010126005                          67276621081RUA DO COMERCIO               CASA      409  BOA VISTA                                                                                              
03251033220260204340290389465622360520250617001050302040021943610324713948M292720J70900000001001             BPARAFAEL DIAS SOUZA             2025040103    010126004                          30109713081AV PRINCIPAL                  CASA      362  PLANALTO                                                                                               
03251033220260246578110810346222360520251017001050302050027621937506839073F292720M77200100000401             BPALUCAS PEREIRA MELO            2024082803    010126005                          48030933081AV PRINCIPAL                  CASA      557  BOA VISTA                                                                                              
03251033220260283516574660759122360520250913001060302050027291460967654256F292720M54205700001001             BPABEATRIZ LIMA SOUZA            1967100203    010126005                          42939402081AV BRASIL                     CASA      820  JARDIM                                                                                                 
03251033220260243399456744567422360520251117001060302060022917296964800460F292720G51803100000901             BPABEATRIZ LIMA PEREIRA          1994042003    010126007                          99695712008RUA SAO JOSE                  CASA      353  JARDIM                                                                                                 
03251033220260209472908104351722360520251017001070302050027317640890871548F292720M75803200001001             BPASOFIA SANTOS LIMA             1993062203    010126005                          58721043081RUA DAS FLORES                CASA      061  CENTRO                                                                                                 
03251033220260233908422254017022360520251017001070302050027471968014162661F292720M54504900001001             BPACARLA COSTA MELO              1975112703    010126005                          57710599081AV PRINCIPAL                  CASA      679  NOVO HORIZONTE                05667937395                                                              
03251033220260298100403475834822360520250612001080302050027267791427737917F292720M54205700001001             BPABEATRIZ GOMES GOMES           1967100903    010126005                          09109250081TRAVESSA CENTRAL              CASA      308  CENTRO                                                                                                 
03251033220260207637102858058822360520251107001080302050027866456783330975F292720M79606500000701             BPAJOAO GOMES DIAS               1960012303    010126005                          95862748037TRAVESSA CENTRAL              CASA      975  NOVO HORIZONTE                                                                                         
03251033220260269256595033935722360520250926001090302050027847978300160454F292720M62605700001001             BPABEATRIZ MELO LIMA             1968060803    010126005                          64188663081AV BRASIL                     CASA      748  NOVO HORIZONTE                                                                                         
03251033220260261265009446908422360520251107001090302050027525859399378602F292720M54608200001001             BPARAFAEL DIAS MELO              1943101303    010126005                          51702595081RUA SAO JOSE                  CASA      055  BOA VISTA                                                                                              
03251033220260221048692691771722360520260106001100302050027593644726307763F292720M54505700000901             BPASOFIA ROCHA DIAS              1968111503    010126005                          83070903081RUA DAS FLORES                CASA      271  CENTRO                                                                                                 
03251033220260246910819684278422360520251128001100302050027009580732704990F292720M23306500001001             BPASOFIA OLIVEIRA SILVA          1960062504    010126005                          43222018081RUA DO COMERCIO               CASA      770  SAO JOSE                                                                                               
03251033220260208932363490167422360520260109001110302050027656580856973570F292720M75805700000601             BPACARLA MELO SANTOS             1968111703    010126005                          74931675081TRAVESSA CENTRAL              CASA      367  CENTRO                                                                                                 
03251033220260291903142686020922360520251002001110302050027178322177568183F292720M62400000001001             BPAANA OLIVEIRA SOUZA            2025061303    010126005                          98828902017RUA DO COMERCIO               CASA      866  SAO JOSE                                                                                               
03251033220260281230957201553422360520260130001120302050027099735135742512M292720G71900000000301             BPAPEDRO SILVA COSTA             2025101403    010126005                          47056260081RUA DO COMERCIO               CASA      341  JARDIM                                                                                                 
03251033220260207536792239813222360520251219001120302050027811844597053755F292720M79704400000601             BPAHELENA MELO LIMA              1981081603    010126005                          57836493081TRAVESSA CENTRAL              CASA      690  PLANALTO                      08815997880                                                              
03251033220260274639009538092622360520260105001130302050027319707986587055F292720M54507000000301             BPAJOAO LIMA SILVA               1956011603    010126005                          51342597081AV PRINCIPAL                  CASA      371  BOA VISTA                                                                                              
03251033220260276305937617480322360520260106001130302050027341778660232036F292720M54204600000201             BPACARLA MELO SILVA              1980010703    010126005                          29217135081RUA SAO JOSE                  CASA      555  PLANALTO                                                                                               
03251033220260274265423961514322360520250711001140302040021652778059291573M292720J44900600001001             BPAPAULO ALVES PEREIRA           2018071503    010126004                          13672044081AV PRINCIPAL                  CASA      847  NOVO HORIZONTE                                                                                         
03251033220260230598511069386022360520251205001140302040021906098739182080F292720J45107200000101             BPAJOAO SOUZA COSTA              1953052203    010126004                          77742490081AV PRINCIPAL                  CASA      371  SAO JOSE                                                                                               
03251033220260252523849276337022360520251107001150302050027405222049626420F292720M54203900001001             BPAPAULO PEREIRA PEREIRA         1986042203    010126005                          67146184081RUA SAO JOSE                  CASA      785  PLANALTO                                                                                               
03251033220260269740201095912022360520251212001150302050027447830737861169F292720M23306500000801             BPAANA OLIVEIRA DIAS             1960092603    010126005                          93854703008RUA DO COMERCIO               CASA      366  PLANALTO                                                                                               
03251033220260213522705809501622360520251107001160302050027224880901634466F292720M54506000001001             BPAHELENA ALVES DIAS             1965091003    010126005                          78116288008AV BRASIL                     CASA      576  CENTRO                                                                                                 
03251033220260253605162521768922360520251219001160302050027601191960529472F292720M23305400000701             BPALUCAS ROCHA LIMA              1971041904    010126005                          96376854081AV BRASIL                     CASA      049  JARDIM                                                                                                 
03251033220260238762168737068822360520260106001170302050027980269962619070M292720M23305400000301             BPAANA SOUZA ROCHA               1971112303    010126005                          11103336081TRAVESSA CENTRAL              CASA      205  SAO JOSE                                                                                               
03251033220260292590252219193522360520251219001170302050027816284364688100F292720M75805400000701             BPABEATRIZ COSTA OLIVEIRA        1971040504    010126005                          26939784081RUA DAS FLORES                CASA      271  JARDIM                                                                                                 
03251033220260224951811775349322360520260106001180302050027719286906622549F292720M79705000000501             BPAANA SANTOS PEREIRA            1975101603    010126005                          97130096081RUA DO COMERCIO               CASA      522  JARDIM                                                                                                 
03251033220260282613793773416222360520251219001180302050027313698276049327F292720M79705600000601             BPALUCAS SANTOS SANTOS           1969061501    010126005                          06198026017AV BRASIL                     CASA      394  JARDIM                                                                                                 
03251033220260210992894117466422360520260123001190302040021354620194850335F292720J45107600000501             BPAPAULO SILVA DIAS              1949021203    010126004                          55082935081RUA DAS FLORES                CASA      440  NOVO HORIZONTE                                                                                         
03251033220260209903827522163322360520251219001190302050027942520703780161M292720M54506000000901             BPAMARIA COSTA SILVA             1965011503    010126005                          92136095081TRAVESSA CENTRAL              CASA      479  NOVO HORIZONTE                                                                                         
03251033220260222054039197650522360520260123001200302050027171511060160381F292720M79707600000501             BPAJOAO MELO SANTOS              1949022203    010126005                          39073367081RUA SAO JOSE                  CASA      403  JARDIM                                                                                                 
03251033220260216494982350189622360520260106001200302050027752778233941394F292720M23303300000401             BPACARLA SANTOS ALVES            1992041303    010126005                          39206675008RUA SAO JOSE                  CASA      735  JARDIM                                                                                                 
03251033220260270216575912308822360520250824001210302040021325574589403357F292720J45105100001001             BPAANA PEREIRA LIMA              1974062503    010126004                          13043017092RUA SAO JOSE                  CASA      310  SAO JOSE                                                                                               
03251033220260243806180252963822360520251215001210302050027346241985758534F292720M54606500000801             BPAJOAO MELO MELO                1960010203    010126005                          83542391008TRAVESSA CENTRAL              CASA      189  JARDIM                                                                                                 
03251033220260244983783883982422360520251017001220302050027844719159952001F292720M54505100000801             BPAJOAO GOMES PEREIRA            1974030803    010126005                          85235027081RUA DO COMERCIO               CASA      796  NOVO HORIZONTE                                                                                         
03251033220260265462597946310222360520251015001220302050027824774596275516F292720M23305300001001             BPAHELENA COSTA PEREIRA          1972080504    010126005                          57247743100RUA DO COMERCIO               CASA      693  NOVO HORIZONTE                                                                                         
03251033220260269823307674529922360520251219001230302050027989834832087324F292720M54203800000701             BPAMARIA OLIVEIRA GOMES          1987121404    010126005                          02237253081AV PRINCIPAL                  CASA      596  SAO JOSE                                                                                               
03251033220260239189327722180922360520251017001230302050027216960687679005F292720M54606400001001             BPASOFIA SOUZA MELO              1961090304    010126005                          98494030081TRAVESSA CENTRAL              CASA      575  CENTRO                        42420054885                                                              
03251033220260218533201667148322360520251219001240302050027937509292077960F292720M54503800000701             BPASOFIA MELO SILVA              1987122704    010126005                          95102102081RUA DAS FLORES                CASA      169  PLANALTO                                                                                               
03251033220260211961892012790522360520251212001240302050027820314621880840F292720M79605300000701             BPAMARIA PEREIRA DIAS            1972071803    010126005                          17196279081AV BRASIL                     CASA      030  JARDIM                        97909195923                                                              
03251033220260234271623312894422360520260107001250302050027187508405367712M292720M75507700000801             BPAPEDRO ALVES SILVA             1948022603    010126005                          76125763081RUA SAO JOSE                  CASA      581  CENTRO                                                                                                 
03251033220260209232572619025122360520260123001250302050027573163894280136F292720M75805700000401             BPAJOAO DIAS SOUZA               1968120403    010126005                          23726396081TRAVESSA CENTRAL              CASA      918  BOA VISTA                                                                                              
03251033220260242959891053471922360520251112001260302060022888219863047893M292720G96805000001001             BPACARLA ALVES ALVES             1975032703    010126007                          90874159081AV PRINCIPAL                  CASA      967  CENTRO                                                                                                 
03251033220260260537814540986722360520251017001260302050027230417639610746F292720M54506500001001             BPALUCAS GOMES ALVES             1960051303    010126005                          94975134081RUA DAS FLORES                CASA      938  NOVO HORIZONTE                                                                                         
03251033220260259504521919522722360520251219001270302050027147362094069925F292720M99907800001001             BPAANA SOUZA MELO                1947122003    010126005                          15715357008AV BRASIL                     CASA      391  CENTRO                                                                                                 
03251033220260238839123278021122360520251107001270302050027013426381835005F292720M23304700001001             BPAMARIA MELO OLIVEIRA           1978060303    010126005                          54937801081TRAVESSA CENTRAL              CASA      322  PLANALTO                                                                                               
03251033220260265436553284468922360520260109001280302050027744239292447938F292720M54507200000801             BPAANA MELO COSTA                1953110103    010126005                          80707736081RUA DO COMERCIO               CASA      527  CENTRO                                                                                                 
03251033220260268632982214810022360520250918001280302060022808696699575633F292720G51004800001001             BPAPAULO ROCHA SANTOS            1977011103    010126007                          82688841081AV BRASIL                     CASA      534  NOVO HORIZONTE                                                                                         
03251033220260241258706812328522360520260128001290302060022780866537428973F292720G51005700000601             BPASOFIA SOUZA ROCHA             1968040403    010126007                          81979387100AV PRINCIPAL                  CASA      660  NOVO HORIZONTE                                                                                         
03251033220260216012215045734922360520251016001290302050027271886547514339F292720M54204300001001             BPAHELENA ALVES SILVA            1982101604    010126005                          33187095081RUA DAS FLORES                CASA      170  PLANALTO                                                                                               
03251033220260237592132030153422360520260107001300302060022351866396731944F292720I69402600000801             BPARAFAEL COSTA SANTOS           1999091203    010126007                          66061339008RUA DAS FLORES                CASA      322  NOVO HORIZONTE                                                                                         
03251033220260242600004037133022360520251128001300302050027240114934413066F292720M65304500001001             BPAMARIA SANTOS ALVES            1980070403    010126005                          72029073081RUA DO COMERCIO               CASA      268  BOA VISTA                                                                                              
03251033220260223024237698872622360520260107001310302050027404260653412024F292720M75002600000801             BPAANA OLIVEIRA SOUZA            1999092403    010126005                          38038697008RUA SAO JOSE                  CASA      860  SAO JOSE                                                                                               
03251033220260265512202957831522360520251107001310302050027024930182832348F292720M99904900001001             BPATIAGO SANTOS GOMES            1976051903    010126005                          59166146081RUA SAO JOSE                  CASA      501  JARDIM                                                                                                 
03251033220260264109998080125322360520251212001320302050027476889198671060F292720M23304600000801             BPARAFAEL ALVES SILVA            1979081403    010126005                          65083257100AV PRINCIPAL                  CASA      399  CENTRO                                                                                                 
03251033220260269647723610480222360520251107001320302050027305252103671250F292720M23303700001001             BPAMARIA LIMA MELO               1988091204    010126005                          59090827008TRAVESSA CENTRAL              CASA      579  SAO JOSE                                                                                               
03251033220260231354112346127422360520251204001330302050027113249061332503M292720M62600000001001             BPASOFIA ALVES DIAS              2025122103    010126005                          37300154092AV BRASIL                     CASA      225  PLANALTO                                                                                               
03251033220260271338007678501922360520251128001330302050027426126863893250F292720M54504900001001             BPAANA OLIVEIRA SANTOS           1976100403    010126005                          11623722037TRAVESSA CENTRAL              CASA      378  PLANALTO                                                                                               
03251033220260278127532138225622360520251215001340302050027773006332322739F292720M23302200001001             BPAJOAO PEREIRA PEREIRA          2003011203    010126005                          43894686081RUA SAO JOSE                  CASA      243  CENTRO                                                                                                 
03251033220260273857687505684722360520250923001340302050027089916741554348M292720M54206200001001             BPAJOAO DIAS MELO                1963070403    010126005                          45085299081RUA SAO JOSE                  CASA      096  CENTRO                                                                                                 
03251033220260227877644423424222360520251215001350302050027360640471512620F292720M54202200001001             BPASOFIA OLIVEIRA PEREIRA        2003012603    010126005                          07904486081RUA DO COMERCIO               CASA      306  SAO JOSE                                                                                               
03251033220260240457805547263822360520250923001350302050027825045697151015M292720M23306200001001             BPASOFIA OLIVEIRA PEREIRA        1963072803    010126005                          19620897081RUA DO COMERCIO               CASA      094  SAO JOSE                                                                                               
03251033220260244582942094799722360520251219001360302050027237284858250216F292720M23300000000701             BPASOFIA SANTOS DIAS             2025121003    010126005                          32250409008TRAVESSA CENTRAL              CASA      921  BOA VISTA                                                                                              
03251033220260293458895115355422360520250806001360302050027347513252931206M292720M79702700000801             BPAANA SILVA SOUZA               1998011401    010126005                          43176942017RUA DO COMERCIO               CASA      353  JARDIM                                                                                                 
03251033220260275073191527506122360520251016001370302060022346118795161142F292720G80900000001001             BPACARLA DIAS COSTA              2024121703    010126007                          10026885081RUA SAO JOSE                  CASA      243  CENTRO                                                                                                 
03251033220260253696862040858522360520251107001370302050027526983514721464M292720M54505800001001             BPAPAULO SILVA GOMES             1967040203    010126005                          82765298081TRAVESSA CENTRAL              CASA      270  PLANALTO                      55714503792                                                              
03251033220260222858892386708422360520250627001380302060022434152596222892F292720G80900800001001             BPASOFIA OLIVEIRA GOMES          2016100603    010126007                          18166476081TRAVESSA CENTRAL              CASA      319  JARDIM                                                                                                 
03251033220260234933743076562422360520251128001380302050027164841707847980F292720M54204900001001             BPAMARIA SANTOS OLIVEIRA         1976101903    010126005                          20965737037RUA SAO JOSE                  CASA      733  JARDIM                                                                                                 
03251033220260236315183135568722360520250627001390302040021464945406464751F292720J70900800001001             BPAMARIA SANTOS GOMES            2016100603    010126004                          84452538081AV BRASIL                     CASA      764  BOA VISTA                                                                                              
03251033220260267027665629510922360520251203001390302050027754263354454789F292720M54504200001001             BPAHELENA MELO LIMA              1983081203    010126005                          50351718081RUA DO COMERCIO               CASA      660  JARDIM                                                                                                 
03251033220260267399634578675922360520260109001400302060022513779164217895M292720G60900000000301             BPAANA DIAS MELO                 2025042403    010126007                          81547925100AV PRINCIPAL                  CASA      300  CENTRO                                                                                                 
03251033220260239411689552476622360520251212001400302050027045192251725952F292720M23304100000801             BPAJOAO ROCHA ROCHA              1984070703    010126005                          97276324081AV BRASIL                     CASA      260  SAO JOSE                                                                                               
03251033220260284765908750308722360520250908001410302060022307357767407116F292720I69405100001001             BPACARLA GOMES LIMA              1973101404    010126007                          94416748028AV BRASIL                     CASA      989  BOA VISTA                                                                                              
03251033220260292975734328565122360520260106001410302050027718724372828921F292720M54206300000401             BPAMARIA DIAS GOMES              1962072303    010126005                          00549729081AV BRASIL                     CASA      203  SAO JOSE                                                                                               
03251033220260202694803883989322360520250725001420302050027568422789246063F292720M54505100001001             BPABEATRIZ GOMES COSTA           1973102304    010126005                          33757927028AV BRASIL                     CASA      133  BOA VISTA                                                                                              
03251033220260256063427176892022360520251107001420302050027896747259590885F292720M54505400001001             BPALUCAS PEREIRA COSTA           1971012403    010126005                          30315306081AV PRINCIPAL                  CASA      939  PLANALTO                                                                                               
03251033220260296774892835173622360520260109001430302050027777282225953441M292720M54507500000601             BPAJOAO PEREIRA SOUZA            1950080203    010126005                          66444340081RUA DO COMERCIO               CASA      883  SAO JOSE                                                                                               
03251033220260258259699028897022360520250612001430302060022352101509764077M292720G95803800001001             BPAANA PEREIRA ALVES             1987050503    010126007                          33139500100TRAVESSA CENTRAL              CASA      259  SAO JOSE                                                                                               
03251033220260297543243070531122360520260109001440302050027070275409792248F292720M75807700000901             BPAPEDRO SILVA ALVES             1948070603    010126005                          58490347081AV PRINCIPAL                  CASA      207  PLANALTO                                                                                               
03251033220260203821990275524622360520251107001440302050027054498989611651F292720M23305400001001             BPACARLA SOUZA COSTA             1971060403    010126005                          16046057081RUA SAO JOSE                  CASA      089  NOVO HORIZONTE                                                                                         
03251033220260277695815784831422360520260109001450302050027848045119085573F292720M75800000000901             BPAJOAO SILVA SILVA              2025021403    010126005                          64311237081AV BRASIL                     CASA      926  SAO JOSE                                                                                               
03251033220260233868860864034622360520251107001450302040021693854782979265F292720J80 05100001001             BPAJOAO DIAS ROCHA               1974021401    010126004                          85368294037RUA SAO JOSE                  CASA      643  CENTRO                                                                                                 
03251033220260298140833740349122360520260109001460302050027595665139935457F292720M70104700000801             BPAPAULO MELO PEREIRA            1978071503    010126005                          90927444081RUA SAO JOSE                  CASA      322  BOA VISTA                                                                                              
03251033220260245961398827074022360520260123001460302050027375354929472527M292720M75807000000401             BPAANA SOUZA LIMA                1955080403    010126005                          59368735081RUA SAO JOSE                  CASA      108  JARDIM                                                                                                 
03251033220260273319127117349222360520260109001470302050027533406961582655M292720M54505400001001             BPABEATRIZ COSTA DIAS            1971031501    010126005                          77810443081RUA SAO JOSE                  CASA      377  CENTRO                                                                                                 
03251033220260230495671989410422360520260106001470302050027249501686736613M292720M23303400000301             BPARAFAEL GOMES SOUZA            1991050203    010126005                          27076375081RUA DAS FLORES                CASA      870  SAO JOSE                                                                                               
03251033220260252900789108833822360520260109001480302050027851580829843316F292720M54505000000901             BPAHELENA ROCHA MELO             1975032803    010126005                          44996360008RUA SAO JOSE                  CASA      721  SAO JOSE                                                                                               
03251033220260213727909946926522360520260123001480302050027801479856092156F292720M65307100000401             BPAANA LIMA DIAS                 1954041203    010126005                          72800791081RUA DAS FLORES                CASA      100  BOA VISTA                                                                                              
03251033220260237870923228184322360520260108001490302050027076331501197108F292720M62407100000801             BPAJOAO OLIVEIRA SANTOS          1954031103    010126005                          43838842081TRAVESSA CENTRAL              CASA      343  SAO JOSE                                                                                               
03251033220260205929742019955422360520260106001490302050027543364886556989M292720M54504100000401             BPAANA SANTOS SOUZA              1985010703    010126005                          96420502081AV BRASIL                     CASA      731  JARDIM                                                                                                 
03251033220260284109232893461522360520260108001500302040021050387597941016M292720J80 04800001001             BPALUCAS OLIVEIRA COSTA          1977030303    010126004                          44939556081AV BRASIL                     CASA      142  JARDIM                                                                                                 
03251033220260210405094276771822360520260123001500302050027080712192197401M292720M54507000000401             BPAPEDRO LIMA ROCHA              1955080603    010126005                          88433766081AV BRASIL                     CASA      286  BOA VISTA                                                                                              
03251033220260228521309070480822360520260108001510302050027424078500361806F292720M75804800000601             BPAHELENA SOUZA MELO             1977092103    010126005                          71502421017TRAVESSA CENTRAL              CASA      748  PLANALTO                                                                                               
03251033220260260736517124502322360520251107001510302040021104694396966489F292720J96002500001001             BPAJOAO SOUZA DIAS               2000012803    010126004                          35398732081AV BRASIL                     CASA      312  NOVO HORIZONTE                                                                                         
03251033220260240209601569935622360520260108001520302050027713239597927957F292720M54606800000601             BPAPEDRO SOUZA SOUZA             1957120503    010126005                          27427728081RUA SAO JOSE                  CASA      723  JARDIM                                                                                                 
03251033220260204788310349364122360520250806001520302060022214148622852673F292720G31004600001001             BPABEATRIZ DIAS COSTA            1979052604    010126007                          85136278081RUA DO COMERCIO               CASA      147  BOA VISTA                     56882058123                                                              
03251033220260278833314443403022360520260108001530302050027614494144745426F292720M54506200001001             BPAMARIA ALVES GOMES             1963021403    010126005                          92090558081RUA DAS FLORES                CASA      698  SAO JOSE                      73285837051                                                              
03251033220260214700584753607922360520250806001530302040021639980419289027F292720J80 04600001001             BPAHELENA SOUZA DIAS             1979050704    010126004                          19186421081TRAVESSA CENTRAL              CASA      470  PLANALTO                      09545227770                                                              
03251033220260252077102747949822360520260108001540302050027162258415930557F292720M99806000000701             BPAPEDRO SANTOS MELO             1965090801    010126005                          98482378081RUA DO COMERCIO               CASA      025  BOA VISTA                                                                                              
03251033220260291381171608913022360520251219001540302050027543203675118126F292720M79705600000601             BPACARLA OLIVEIRA COSTA          1969061001    010126005                          79513587017RUA SAO JOSE                  CASA      629  JARDIM                                                                                                 
03251033220260207590215690868522360520260107001550302050027933837069087315F292720M75803800000501             BPACARLA OLIVEIRA LIMA           1987042103    010126005                          27518945081AV PRINCIPAL                  CASA      692  PLANALTO                                                                                               
03251033220260268077604526850822360520251212001550302050027069063061390325F292720M75806000000601             BPASOFIA DIAS OLIVEIRA           1965071403    010126005                          29901750081AV PRINCIPAL                  CASA      596  CENTRO                                                                                                 
03251033220260286238234205965822360520260107001560302050027261096640324304M292720M70105200000901             BPAMARIA GOMES ROCHA             1973031704    010126005                          96972143081TRAVESSA CENTRAL              CASA      651  BOA VISTA                                                                                              
03251033220260259487575753149622360520251113001560302050027746707318406658F292720M54204900001001             BPAANA COSTA PEREIRA             1976052301    010126005                          59196428081AV PRINCIPAL                  CASA      041  PLANALTO                                                                                               
03251033220260285738122689170022360520260108001570302050027180101480332387F292720M23305600000401             BPALUCAS ROCHA SOUZA             1969071403    010126005                          77880777081RUA SAO JOSE                  CASA      610  CENTRO                        68443323680                                                              
03251033220260255016014898602922360520260116001570302060022078780215490740M292720G80900300000601             BPAMARIA SILVA ROCHA             2022120403    010126007                          47184557081AV BRASIL                     CASA      466  CENTRO                                                                                                 
03251033220260261012414795355422360520260107001580302050027429600181305240F292720M23306900000501             BPAPEDRO SILVA SANTOS            1956052803    010126005                          63259089081RUA DO COMERCIO               CASA      518  JARDIM                                                                                                 
03251033220260242879027650951922360520251118001580302040021718739216766575F292720J45808500001001             BPACARLA GOMES ROCHA             1939121803    010126004                          62613487081RUA DAS FLORES                CASA      248  PLANALTO                                                                                               
03251033220260264429975093325822360520260107001590302050027260535736333315F292720M23305600000501             BPAHELENA SOUZA ROCHA            1969050603    010126005                          51860510081RUA SAO JOSE                  CASA      969  NOVO HORIZONTE                                                                                         
03251033220260291509668735834922360520251204001590302050027679674409393472F292720M54505200001001             BPAPAULO GOMES PEREIRA           1973050603    010126005                          56308680092AV BRASIL                     CASA      335  BOA VISTA                                                                                              
03251033220260252384886588403122360520260107001600302050027083049529910991F292720M75805100000801             BPAANA MELO COSTA                1974091303    010126005                          65303103081RUA DO COMERCIO               CASA      958  NOVO HORIZONTE                                                                                         
03251033220260258141061966555522360520250805001600302050027608624210340995F292720M54505900001001             BPACARLA MELO DIAS               1965080903    010126005                          42300390081RUA DAS FLORES                CASA      274  NOVO HORIZONTE                                                                                         
03251033220260298533712248509822360520260107001610302050027431328847954769F292720M54606200000701             BPAPEDRO PEREIRA COSTA           1963081704    010126005                          58898823037TRAVESSA CENTRAL              CASA      434  JARDIM                        52016726740                                                              
03251033220260293942334728694522360520251219001610302050027298811390665283F292720M54507500000801             BPAANA SOUZA ALVES               1950071703    010126005                          30818321008RUA DAS FLORES                CASA      765  PLANALTO                                                                                               
03251033220260229495007531554022360520260107001620302050027613508393622082F292720M23302500000801             BPACARLA ALVES SILVA             2000062103    010126005                          98430807081RUA DAS FLORES                CASA      570  CENTRO                                                                                                 
03251033220260277180391034681022360520260107001630302050027374119426947753F292720M54203800000901             BPAANA ALVES PEREIRA             1987102303    010126005                          61678691081AV PRINCIPAL                  CASA      845  PLANALTO                                                                                               
03251033220260227833062874362422360520260107001640302050027274518180927154F292720M23304900000901             BPASOFIA OLIVEIRA LIMA           1976051604    010126005                          45557876081RUA DO COMERCIO               CASA      425  PLANALTO                                                                                               
03251033220260283419125100783122360520251107001650302050027121089663616477F292720M77305000000601             BPAPEDRO MELO LIMA               1975042303    010126005                          69350086081TRAVESSA CENTRAL              CASA      894  NOVO HORIZONTE                                                                                         
03251033220260219826225397250622360520251114001660302050027449047041297444M292720M70108300001001             BPAPEDRO DIAS ROCHA              1942091304    010126005                          45162946081RUA SAO JOSE                  CASA      763  SAO JOSE                                                                                               
03251033220260275782184722987522360520260106001670302050027393661332168719F292720M54306000000401             BPALUCAS COSTA DIAS              1965121603    010126005                          40744678081TRAVESSA CENTRAL              CASA      981  BOA VISTA                                                                                              
03251033220260260398441957457522360520251016001680302050027406831503209229M292720M54304800000801             BPARAFAEL SOUZA MELO             1977061103    010126005                          21151726081RUA DAS FLORES                CASA      063  PLANALTO                                                                                               
03251033220260224330334834735122360520250912001690302050027737639384091773F292720M23302700000601             BPAHELENA SOUZA PEREIRA          1998060403    010126005                          63458967081TRAVESSA CENTRAL              CASA      408  SAO JOSE                                                                                               
03251033220260236424151214131522360520251128001700302050027019386498038222F292720M23307100000501             BPARAFAEL LIMA DIAS              1954051301    010126005                          70138042081AV PRINCIPAL                  CASA      021  PLANALTO                      53268310714                                                              
03251033220260245777142954174022360520251024001710302050027104702548814858F292720M54507100000701             BPACARLA PEREIRA SOUZA           1954020603    010126005                          73308055081AV BRASIL                     CASA      286  BOA VISTA                                                                                              
03251033220260292484370615182722360520251107001720302050027080577832911330F292720M54505600000901             BPARAFAEL PEREIRA SOUZA          1968111903    010126005                          54301651081AV PRINCIPAL                  CASA      930  SAO JOSE                                                                                               
03251033220260239167652273296322360520251107001730302050027687956812965440F292720M54206600000701             BPABEATRIZ COSTA OLIVEIRA        1959071003    010126005                          63146287081AV BRASIL                     CASA      009  BOA VISTA                                                                                              
03251033220260257661779366254922360520260206001740302050027268302028393300M292720M79707100001001             BPATIAGO SILVA PEREIRA           1955012303    010126005                          48907813081RUA DAS FLORES                CASA      511  BOA VISTA                                                                                              
03251033220260200044042189175922360520250219001750302050027664626296583005F292720M54504800001001             BPARAFAEL LIMA SANTOS            1976091003    010126005                          34185866100RUA DAS FLORES                CASA      421  CENTRO                                                                                                 
03251033220260253398908748785222360520251003001760302050027303075834349255M292720M79703700001001             BPACARLA PEREIRA ROCHA           1988030903    010126005                          79345973081RUA DAS FLORES                CASA      638  PLANALTO                                                                                               
03251033220260227882993454005822360520260123001770302050027399131499316595M292720M75905900001001             BPALUCAS COSTA DIAS              1966060104    010126005                          91580927081TRAVESSA CENTRAL              CASA      482  BOA VISTA                                                                                              
03251033220260201697136566090822360520251107001780302050027136485913169799M292720M79607100000901             BPAPEDRO SILVA ROCHA             1953121903    010126005                          96466554081RUA SAO JOSE                  CASA      149  PLANALTO                                                                                               
03251033220260212398861406953022360520260116001790302050027603081870320442F292720M62604700000701             BPAANA ROCHA SOUZA               1978031003    010126005                          94253347081RUA DO COMERCIO               CASA      419  NOVO HORIZONTE                                                                                         
03251033220260283715384310812622360520250926001800302050027451435229375936F292720M79604900000601             BPATIAGO SILVA GOMES             1976030603    010126005                          78272591081RUA DO COMERCIO               CASA      588  PLANALTO                                                                                               
03251033220260272833854134452622360520251107001810302050027057898362251358F292720M23309000001001             BPAPEDRO LIMA GOMES              1935051803    010126005                          67773091081RUA SAO JOSE                  CASA      501  SAO JOSE                      82788976490                                                              
03251033220260226781431967170922360520250912001820302060022752429885696461M292720G80901300001001             BPAPAULO ALVES SANTOS            2012070703    010126007                          27550617081TRAVESSA CENTRAL              CASA      020  CENTRO                                                                                                 
03251033220260247638410962527622360520251107001830302050027919243131222328F292720M54203100001001             BPAPAULO LIMA OLIVEIRA           1994011903    010126005                          05326206081AV BRASIL                     CASA      670  PLANALTO                                                                                               
03251033220260221067288761356422360520251128001840302050027350324682293942F292720M54505900001001             BPAMARIA SOUZA SOUZA             1966021802    010126005                          12906990081TRAVESSA CENTRAL              CASA      124  CENTRO                                                                                                 
03251033220260232021818028666522360520250902001850302060022555053958874588F292720G80900500001001             BPAPEDRO ALVES OLIVEIRA          2019111003    010126007                          34945510081RUA DO COMERCIO               CASA      729  PLANALTO                      52314906825                                                              
03251037520260209377213972303522512520260226001010803010028075029379898172F292720    01500000101             BPALUCAS ROCHA SOUZA             2010111203    010                                98032503081RUA DAS FLORES                CASA      448  JARDIM                                                                                                 
03251037520260268713727125218522512520260226001020803010125486122945919343F292720    01500001301             BPAHELENA COSTA MELO             2010111603    010                                70192068081AV PRINCIPAL                  CASA      404  JARDIM                                                                                                 
03251037520260216528439823599922512520260226001030803010052445112330314909F292720    05000000101             BPAMARIA ALVES SILVA             1976011703    010                                04082298081RUA DAS FLORES                CASA      943  JARDIM                                                                                                 
03251037520260224398255967518422512520260226001040803010109617460622652574F292720    05000001301             BPACARLA MELO SANTOS             1976010403    010                                12291849081AV PRINCIPAL                  CASA      925  PLANALTO                                                                                               
03251037520260228906858622578222512520260204001050803010028992044339643459F292720    04700000101             BPAJOAO PEREIRA LIMA             1978100203    010                                07780800081RUA DO COMERCIO               CASA      455  CENTRO                                                                                                 
03251037520260266861853748361322512520260204001060803010125153620375987801F292720    04700001301             BPATIAGO DIAS COSTA              1978101403    010                                46109927081RUA SAO JOSE                  CASA      409  PLANALTO                                                                                               
03251037520260290816833558527822512520260225001070803010028524816830519032F292720    07000000101             BPASOFIA OLIVEIRA SOUZA          1955112603    010                                33934665081AV BRASIL                     CASA      124  SAO JOSE                                                                                               
03251037520260216453916244055222512520250225001080803010125978601419513468F292720    06900000101             BPABEATRIZ GOMES DIAS            1955111403    010                                82433248081AV PRINCIPAL                  CASA      864  CENTRO                                                                                                 
03251037520260227611134042354022512520260225001090803010052737977217058963M292720    06500000101             BPALUCAS DIAS ALVES              1960070603    010                                07956044081TRAVESSA CENTRAL              CASA      328  NOVO HORIZONTE                                                                                         
03251037520260250371861555320822512520260225001100803010109057662410616253M292720    06500001301             BPAPAULO OLIVEIRA COSTA          1960071203    010                                45991461081TRAVESSA CENTRAL              CASA      510  CENTRO                                                                                                 
03251037520260294626699700803222512520260205001110803010028375310665590336F292720    05000000101             BPATIAGO DIAS COSTA              1975121703    010                                71777075081RUA SAO JOSE                  CASA      098  NOVO HORIZONTE                                                                                         
03251037520260288278144648729722512520260205001120803010125106225602107007F292720    05000001301             BPARAFAEL LIMA GOMES             1975121703    010                                19814889081AV PRINCIPAL                  CASA      294  BOA VISTA                                                                                              
03251037520260235420391338533522512520260201001130803010028329800274009348M292720    04400000401             BPAMARIA PEREIRA ROCHA           1981040601    010                                95607312081AV BRASIL                     CASA      578  BOA VISTA                                                                                              
03251037520260273023611687150422512520260201001140803010125242099741236397M292720    04400005201             BPAANA PEREIRA LIMA              1981041101    010                                35880271081RUA DO COMERCIO               CASA      875  BOA VISTA                                                                                              
03251037520260230163601769484122512520260227001150803010028876612830785377F292720    00700000101             BPAMARIA DIAS SANTOS             2018102103    010                                68227484081RUA DAS FLORES                CASA      883  PLANALTO                                                                                               
03251037520260212642564280555322512520260227001160803010125004055085694572F292720    00700001301             BPATIAGO ALVES DIAS              2018102703    010                                60661916081RUA DAS FLORES                CASA      700  JARDIM                                                                                                 
03251037520260213245276413372422512520260227001170803010052796036068401136F292720    04800000101             BPAANA SOUZA ALVES               1977051903    010                                84191072081AV BRASIL                     CASA      623  SAO JOSE                                                                                               
03251037520260270937505886211422512520260227001180803010109386188696088735F292720    04800001301             BPAANA DIAS LIMA                 1977050803    010                                78381777081RUA DAS FLORES                CASA      451  CENTRO                                                                                                 
03251037520260284903168579759622512520260225001190803010028368134901669018F292720    04700000101             BPABEATRIZ SOUZA ROCHA           1979031903    010                                86037413081RUA DAS FLORES                CASA      675  CENTRO                                                                                                 
03251037520260215839741195934622512520260226001200803010125177840235071531F292720    04700001301             BPASOFIA ALVES PEREIRA           1979031003    010                                76705736081TRAVESSA CENTRAL              CASA      621  NOVO HORIZONTE                                                                                         
03251037520260280374200630999022512520260225001210803010052181756002427178F292720    04900000101             BPARAFAEL ALVES ALVES            1976091101    010                                03624815081RUA SAO JOSE                  CASA      937  PLANALTO                                                                                               
03251037520260257101246488576122512520260225001220803010109685124393379499F292720    04900001301             BPASOFIA ROCHA DIAS              1976090901    010                                54262549081AV BRASIL                     CASA      381  NOVO HORIZONTE                                                                                         
03251037520260255970799462140122512520260105001230803010028193941166343461F292720    06600000101             BPABEATRIZ SANTOS LIMA           1959092802    010                                37574798081RUA DO COMERCIO               CASA      389  SAO JOSE                                                                                               
03251037520260232334595971013022512520260105001240803010125194248787265455F292720    06600001301             BPATIAGO OLIVEIRA SILVA          1959092602    010                                25422562081RUA DAS FLORES                CASA      516  JARDIM                                                                                                 
03251037520260230440942745942122512520260224001250803010028820626232302923F292720    05800000201             BPAHELENA SILVA SILVA            1968021903    010                                65922410008RUA DO COMERCIO               CASA      560  NOVO HORIZONTE                                                                                         
03251037520260249466771256713722512520260224001260803010125681626746033837F292720    05800002601             BPARAFAEL ALVES PEREIRA          1968021703    010                                04541823008RUA DAS FLORES                CASA      084  BOA VISTA                                                                                              
03251037520260290915182941458022512520260224001270803010052687628661324718F292720    05000000201             BPACARLA PEREIRA MELO            1976031503    010                                69926894008RUA SAO JOSE                  CASA      627  SAO JOSE                                                                                               
03251037520260243893275473359422512520260224001280803010109334453535549017F292720    05000002601             BPALUCAS SANTOS PEREIRA          1976032503    010                                06163467008RUA DAS FLORES                CASA      567  JARDIM                                                                                                 
03251037520260293579066714262522512520260204001290803010028589128182401590F292720    01400000301             BPAPAULO PEREIRA SILVA           2011051803    010                                01541201081RUA DAS FLORES                CASA      989  BOA VISTA                                                                                              
03251037520260271470915237038822512520260204001300803010125850088754984004F292720    01400003901             BPAPEDRO OLIVEIRA SOUZA          2011052703    010                                10665057081AV BRASIL                     CASA      134  NOVO HORIZONTE                                                                                         
03251037520260247189504977900022512520260204001310803010052650079210628289F292720    06000000301             BPASOFIA PEREIRA MELO            1965032303    010                                53504092081TRAVESSA CENTRAL              CASA      435  SAO JOSE                                                                                               
03251037520260241719392079013522512520260204001320803010109394133455526987F292720    06000003901             BPATIAGO GOMES ALVES             1965032803    010                                98931055081AV BRASIL                     CASA      195  CENTRO                                                                                                 
03251037520260293623685990100422512520260211001330803010028976260422074704F292720    05000000101             BPAPAULO ALVES MELO              1976012703    010                                44572865081AV PRINCIPAL                  CASA      560  BOA VISTA                                                                                              
03251037520260210121390496943922512520260211001340803010125897215920221191F292720    05000001301             BPAANA COSTA MELO                1976011503    010                                66862652081AV PRINCIPAL                  CASA      977  SAO JOSE                                                                                               
03251037520260219739540720955922512520260203001350803010028380783550187491M292720    01200000101             BPACARLA ALVES OLIVEIRA          2013121003    010                                23286557081AV PRINCIPAL                  CASA      646  SAO JOSE                                                                                               
03251037520260286303142436370022512520260203001360803010125768279013282329M292720    01200001301             BPAANA ALVES ROCHA               2013121203    010                                67874425081RUA DAS FLORES                CASA      986  JARDIM                                                                                                 
03251037520260219142541593426322512520260203001370803010052720314216396532F292720    05600000101             BPAPEDRO PEREIRA ROCHA           1970010703    010                                03538863081AV BRASIL                     CASA      218  PLANALTO                                                                                               
03251037520260255412322612681322512520260203001380803010109859971270939491F292720    05600001301             BPAANA MELO GOMES                1970011603    010                                12712769081RUA DO COMERCIO               CASA      870  SAO JOSE                                                                                               
03251037520260244233481448869722512520260211001390803010028404795191629773F292720    06700000201             BPAJOAO GOMES LIMA               1958052603    010                                41774609081RUA DAS FLORES                CASA      968  CENTRO                                                                                                 
03251037520260215121899894843822512520260212001400803010125954205817660430F292720    06700002601             BPACARLA SILVA OLIVEIRA          1958051603    010                                22919089081AV PRINCIPAL                  CASA      519  NOVO HORIZONTE                                                                                         
03251037520260253360883849087722512520260211001410803010052345700060856330F292720    05100000201             BPAANA DIAS ALVES                1974041803    010                                00829965100AV BRASIL                     CASA      089  JARDIM                                                                                                 
03251037520260228455761777435722512520260211001420803010109823346340270986F292720    05100002601             BPATIAGO PEREIRA PEREIRA         1974040503    010                                50639404100AV PRINCIPAL                  CASA      283  BOA VISTA                                                                                              
03251037520260277559967545760722512520260203001430803010028911444249741853F292720    04900000401             BPACARLA SOUZA DIAS              1976121904    010                                77949714081AV BRASIL                     CASA      245  SAO JOSE                                                                                               
03251037520260205829357853569522512520260203001440803010125756422708329015F292720    04900005201             BPACARLA LIMA ALVES              1976121604    010                                40984330081RUA SAO JOSE                  CASA      887  CENTRO                                                                                                 
03251037520260246887205701502922512520260203001450803010052856600828742201M292720    02100000401             BPACARLA PEREIRA SILVA           2004092403    010                                58583478081RUA DAS FLORES                CASA      117  PLANALTO                                                                                               
03251037520260217742870060054822512520260203001460803010109314924628290733M292720    02100005201             BPATIAGO PEREIRA OLIVEIRA        2004092003    010                                93460879081AV PRINCIPAL                  CASA      097  CENTRO                                                                                                 
03251037520260265570757848381722512520260211001470803010028261368325764666F292720    07900000301             BPALUCAS GOMES LIMA              1946101004    010                                00870025008AV BRASIL                     CASA      990  NOVO HORIZONTE                                                                                         
03251037520260238426927483150822512520260211001480803010125630006178788809F292720    07900003901             BPAPAULO SOUZA ALVES             1946101204    010                                90858799008AV BRASIL                     CASA      912  SAO JOSE                                                                                               
03251037520260288903937035368422512520260211001490803010052974944049222284F292720    04800000301             BPALUCAS ALVES MELO              1977040901    010                                53514305008RUA DAS FLORES                CASA      171  PLANALTO                                                                                               
03251037520260200080529589702822512520260211001500803010109014427658768526F292720    04800003901             BPAHELENA COSTA ROCHA            1977040601    010                                30941819008RUA DO COMERCIO               CASA      298  CENTRO                                                                                                 
03251037520260201165883998922022512520260210001510803010028684583080217745F292720    04000000101             BPALUCAS SOUZA MELO              1985050503    010                                94573399081RUA DAS FLORES                CASA      399  SAO JOSE                                                                                               
03251037520260228510158341972422512520260210001520803010125367784140800557F292720    04000001301             BPAPEDRO ROCHA OLIVEIRA          1985050603    010                                91159392081AV PRINCIPAL                  CASA      845  CENTRO                                                                                                 
03251037520260245637464939240722512520260211001530803010028074677864458370F292720    01700000301             BPACARLA SILVA ALVES             2008061903    010                                42243420081RUA DO COMERCIO               CASA      894  NOVO HORIZONTE                                                                                         
03251037520260250443905784359022512520260211001540803010125235200250112192F292720    01700003901             BPALUCAS ALVES SOUZA             2008060703    010                                37643563081RUA SAO JOSE                  CASA      452  CENTRO                                                                                                 
03251037520260299097508813825922512520260211001550803010052365390518746064F292720    03700000301             BPAPEDRO GOMES GOMES             1988050403    010                                27400052081RUA DO COMERCIO               CASA      964  JARDIM                                                                                                 
03251037520260297115589301663622512520260211001560803010109797555638788815F292720    03700003901             BPAANA SANTOS SILVA              1988050803    010                                33796194081RUA SAO JOSE                  CASA      450  SAO JOSE                                                                                               
03251037520260208451766028090622512520260204001570803010028996040302331277F292720    05500000101             BPAPEDRO DIAS DIAS               1970022004    010                                15499127081AV BRASIL                     CASA      148  PLANALTO                                                                                               
03251037520260216558568867488122512520260204001580803010125070214859337023F292720    05500001301             BPAPEDRO COSTA DIAS              1970021604    010                                49327431081AV PRINCIPAL                  CASA      032  PLANALTO                                                                                               
03251037520260231623740029589722512520260204001590803010052681170878516879F292720    04700000101             BPAANA GOMES LIMA                1978122803    010                                53300973081AV BRASIL                     CASA      737  NOVO HORIZONTE                                                                                         
03251037520260258604566892585122512520260204001600803010109615258191828498F292720    04700001301             BPACARLA PEREIRA COSTA           1978120703    010                                92345190081AV PRINCIPAL                  CASA      099  NOVO HORIZONTE                                                                                         
03251037520260206289734933453722512520260209001610803010028079257545162873M292720    06800000401             BPAMARIA COSTA MELO              1957031303    010                                72041144081RUA DO COMERCIO               CASA      612  BOA VISTA                                                                                              
03251037520260274219681167817822512520260209001620803010125613273990752562M292720    06800005201             BPAJOAO LIMA LIMA                1957030803    010                                05160073081AV PRINCIPAL                  CASA      267  CENTRO                                                                                                 
03251037520260298094233677403022512520260209001630803010052261650376022887M292720    06800000401             BPAANA GOMES SANTOS              1957030303    010                                85447739081RUA DAS FLORES                CASA      946  BOA VISTA                                                                                              
03251037520260219848408602991022512520260209001640803010109991341680530765M292720    06800005201             BPAANA LIMA ALVES                1957031603    010                                20135410081TRAVESSA CENTRAL              CASA      781  BOA VISTA                                                                                              
03251037520260250857221442730922512520260206001650803010028912848316891803M292720    05600000301             BPAHELENA MELO OLIVEIRA          1969101903    010                                60104309081RUA DO COMERCIO               CASA      051  CENTRO                                                                                                 
03251037520260209137343047126022512520260206001660803010125176434423239783M292720    05600003901             BPARAFAEL LIMA OLIVEIRA          1969102103    010                                57888412081AV BRASIL                     CASA      876  PLANALTO                                                                                               
03251037520260262282360335108922512520260202001670803010028985803054275329F292720    00800000501             BPAMARIA COSTA GOMES             2017052603    010                                21984973028AV PRINCIPAL                  CASA      251  CENTRO                                                                                                 
03251037520260280430307687173822512520260202001680803010125050945879918612F292720    00800006401             BPAANA OLIVEIRA SILVA            2017051003    010                                50135908028RUA DO COMERCIO               CASA      721  SAO JOSE                                                                                               
03251037520260277938992867893922512520260202001690803010052978345339104428F292720    05100000501             BPAPEDRO ALVES MELO              1974052503    010                                06198263081RUA DAS FLORES                CASA      649  BOA VISTA                                                                                              
03251037520260290189891987285122512520260202001700803010109870674820314076F292720    05100006401             BPACARLA COSTA GOMES             1974051203    010                                98144903081AV PRINCIPAL                  CASA      872  SAO JOSE                                                                                               
03251037520260258197418778249022512520260223001710803010028841516528753126F292720    03900000101             BPATIAGO LIMA LIMA               1986041203    010                                19514927081AV PRINCIPAL                  CASA      412  JARDIM                                                                                                 
03251037520260217446780559082622512520260223001720803010125631117068572316F292720    03900001301             BPAPAULO SOUZA OLIVEIRA          1986041103    010                                72882040081AV BRASIL                     CASA      625  SAO JOSE                                                                                               
03251037520260272016701068935022512520260223001730803010052111358574802808F292720    03600000101             BPAHELENA SOUZA DIAS             1989052503    010                                24583070081RUA DO COMERCIO               CASA      139  NOVO HORIZONTE                                                                                         
03251037520260245207834453360922512520260223001740803010109422516493069407F292720    03600001301             BPAHELENA SOUZA LIMA             1989052303    010                                49349477081RUA DO COMERCIO               CASA      134  BOA VISTA                                                                                              
03251037520260241323317844022222512520260205001750803010028200569544466875F292720    05100000201             BPALUCAS COSTA MELO              1974092803    010                                11304460081AV BRASIL                     CASA      709  NOVO HORIZONTE                                                                                         
03251037520260234401321957869222512520260205001760803010125855738613914601F292720    05100002601             BPAMARIA PEREIRA COSTA           1974091503    010                                40862631081RUA SAO JOSE                  CASA      000  JARDIM                                                                                                 
03251037520260222052804301821522512520260202001770803010028249503305366109F292720    02300000201             BPALUCAS ROCHA DIAS              2002031003    010                                58495817081TRAVESSA CENTRAL              CASA      160  SAO JOSE                                                                                               
03251037520260261270097170728822512520260202001780803010125497728889826856F292720    02300002601             BPAHELENA SOUZA SILVA            2002031903    010                                54262579081AV PRINCIPAL                  CASA      969  BOA VISTA                                                                                              
